:020000040800F2
:100000002804002011070008210700082307000822
:1000100000000000000000000000000000000000E0
:10002000000000000000000000000000250700089C
:100030000000000000000000270700082907000852
:10004000A3030008BB040008BF040008EF06000873
:10005000FB0600083D0700083F07000841070008AD
:10006000430700084507000847070008490700083C
:100070004B0700084D0700084F070008510700080C
:100080005307000855070008000000005707000844
:10009000590700085B0700085D0700085F070008B4
:1000A0006107000863070008650700086707000884
:1000B00069070008000000006B070008000000004E
:1000C00030B583B00500AC00012100BF42A000594B
:1000D00000F005F9680000BF3EA1085A009068468C
:1000E000012101710021C180032141716946374816
:1000F000005900F019F937BD8100344A51584000C9
:1001000034A2105A886170478100304A515840002B
:1001100030A2105A0885704781002C4A51588A8AAB
:10012000400000BF2BA3185A50408882704700003F
:10013000F0B585B006000F00B400012129A00059D8
:1001400000F0CDF80121012000F0D3F803A8002130
:100150000171C171750000BF21A0405B039003A92C
:100160001B48005900F0E0F8012F23D120A0415B8B
:10017000C9B200BF1DA0405BC0B200F013F900BFC0
:1001800019A0405B019001A800210171002E01D04F
:10019000082100E00C2141710124847100F016F95E
:1001A000684600BF13A1495B017003214170847050
:1001B00000F042F905B0F0BD80B5410008A2515AE7
:1001C0008000034A105800F0E4F802BD100000203F
:1001D00018000020000200010000080000000800D4
:1001E000010000000000020001000000000000000B
:1001F00000000000050038B4012100220368001D42
:10020000002B0BD00468001D0C4202D04D466D1E21
:1002100064192260241D1B1FF0D0FAE732BC70471E
:10022000F0B50400384D28680F260C21014008293C
:1002300012D128682968870C3740BF1CC80303D433
:1002400032484743380008E0A96A31483140491C28
:1002500000F01CF9784300E02D4820602A682D4802
:10026000216812091640825DD14061602A685205FA
:10027000520F805CC140A160E86AC00501D42648E5
:1002800005E02868400401D4480800E08808E060E0
:1002900080200002E96A490601D4204900E00100FB
:1002A0002161E96AC90601D4194900E02168616148
:1002B0000321EA6A0A4001D1A0680EE0EA6A0A4016
:1002C000012A01D1206808E0EA6A0A40022A04D023
:1002D000E86A0140032901D10D48A061F0BD104A30
:1002E0000029116802D008431060704781431160F3
:1002F00070470C4A0029116802D00843106070470B
:1003000081431160704700000410024000093D0065
:1003100000127A0000000020809FD50012800000AB
:100320001410024018100240F0B5002301229A4038
:100330000C681440944228D15C000326A640F54383
:100340000E79012E01D0022E0FD186682E408660D4
:1003500086684F79A74037438760868896438680B2
:1003600082888E799E401643868002682A40026009
:1003700002680E79A64016430660C2681540C56043
:10038000C268CD79A5401543C5605B1C102BCDD349
:10039000F0BD02000020128AFFE70A4200D00120CF
:1003A0007047FEE710B50A0003239A43064B9A18DC
:1003B0008907090F13680F248C40A3431360136847
:1003C00088401843106010BD0800014030B5016836
:1003D000CC4318498279002A25D00A4613681C406C
:1003E000146053680468A343536003795B181C6866
:1003F000056825431D6093680468A3439360D36830
:100400000468A343D36043790468102B07D1916833
:100410000C439460D16800680843D06030BD5B181D
:100420001868044303E000794318186804401C600E
:1004300030BD000000040140F0B5010008781F2223
:1004400001238C78002C16D004000325AC430C4DFE
:100450002C1925688007C60EFF27FF20B040854372
:10046000487880010740B7402F4327600878024052
:100470009340044802E00240934003480360F0BD0B
:1004800000E400E000E100E080E100E0094210D07B
:1004900088420BD30122002300185B418B4200D31A
:1004A0005B1A5241F8D31900100070470100002078
:1004B000704708B500F002F808BDFEE77047FEE798
:1004C00070B588B00020FFF7FBFD0120FFF7F8FDB5
:1004D00000210020FFF72CFE6846FFF7A1FEFA245A
:1004E000A40001982100FFF7D1FF401E00258021C4
:1004F000490488420CD22549486025480268120206
:10050000120AC0231B06134303608D600720086096
:10051000204E0120307005E00020FFF7FDFD642033
:1005200000F022F80020FFF747FE012812D1FFF764
:10053000E3FD200000F018F80120FFF7E5FD30781A
:10054000401C3070C0B2032804D135700020FFF782
:10055000DBFDE7E730780228DED00128F6D1002065
:10056000FFF7DAFDC820DBE781B001B40A48009943
:10057000016001680029FCD102B07047064801689B
:10058000002902D00168491E0160704710E000E0B8
:1005900020ED00E0200000201C00002082B0254853
:1005A000016801220A4302604168234A0A4042600E
:1005B0000168224A0A4002600168214A0A4002603A
:1005C000204942680A404260C26A0F239A43C262CD
:1005D000026B1D4B13400363426B01239A4342633A
:1005E0000022826000920092184A11231360426830
:1005F0004260426842604268114041604168A02206
:1006000092030A4342600168802252040A43026056
:1006100001688901FCD5416803229143416041682A
:1006200002220A43426041680C220A40082AFAD199
:1006300002B07047001002400CB8FFF8FFFFF6FE52
:10064000FFFFFBFFFFFFC0FFACFEFFFF00200240EB
:1006500038B401210268001D002A0FD00368C318B6
:10066000446808300C4202D04D466D1E64191D6866
:1006700025601B1D241D121FECD0F8E732BC70470B
:1006800010B5074979441831064C7C44163404E00F
:10069000081D0A68891888470100A142F8D110BDD9
:1006A00008000000280000004FFBFFFF08000000CA
:1006B0001C0000200000000099FFFFFF1C0000004C
:1006C000AC000000000000200000000000F009F86D
:1006D000002801D0FFF7D4FF0020FFF7F1FE00F063
:1006E00002F80120704780B500F002F801BDFEE776
:1006F0000746384600F002F8FBE7FEE780B5C04643
:10070000C046024A11001820ABBEFBE726000200DB
:1007100001488047014800479D050008310700084F
:100720007047FEE77047704780B5FFF727FF01BDB0
:10073000C046C046C046C046FFF7C8FFFEE7FEE71A
:10074000FEE7FEE7FEE7FEE7FEE7FEE7FEE7FEE781
:10075000FEE7FEE7FEE7FEE7FEE7FEE7FEE7FEE771
:10076000FEE7FEE7FEE7FEE7FEE7FEE7000000002B
:1007700001020304010203040607080900080048F7
:080780000008004800000048D9
:0400000508000731B7
:00000001FF
